{
  "_format": "hh-sol-artifact-1",
  "contractName": "ERC20",
  "sourceName": "contracts/openzeppelin/ERC20.sol",
  "abi": [
    {
      "inputs": [
        {
          "internalType": "string",
          "name": "name_",
          "type": "string"
        },
        {
          "internalType": "string",
          "name": "symbol_",
          "type": "string"
        }
      ],
      "stateMutability": "nonpayable",
      "type": "constructor"
    },
    {
      "anonymous": false,
      "inputs": [
        {
          "indexed": true,
          "internalType": "address",
          "name": "owner",
          "type": "address"
        },
        {
          "indexed": true,
          "internalType": "address",
          "name": "spender",
          "type": "address"
        },
        {
          "indexed": false,
          "internalType": "uint256",
          "name": "value",
          "type": "uint256"
        }
      ],
      "name": "Approval",
      "type": "event"
    },
    {
      "anonymous": false,
      "inputs": [
        {
          "indexed": true,
          "internalType": "address",
          "name": "from",
          "type": "address"
        },
        {
          "indexed": true,
          "internalType": "address",
          "name": "to",
          "type": "address"
        },
        {
          "indexed": false,
          "internalType": "uint256",
          "name": "value",
          "type": "uint256"
        }
      ],
      "name": "Transfer",
      "type": "event"
    },
    {
      "inputs": [
        {
          "internalType": "address",
          "name": "owner",
          "type": "address"
        },
        {
          "internalType": "address",
          "name": "spender",
          "type": "address"
        }
      ],
      "name": "allowance",
      "outputs": [
        {
          "internalType": "uint256",
          "name": "",
          "type": "uint256"
        }
      ],
      "stateMutability": "view",
      "type": "function"
    },
    {
      "inputs": [
        {
          "internalType": "address",
          "name": "spender",
          "type": "address"
        },
        {
          "internalType": "uint256",
          "name": "amount",
          "type": "uint256"
        }
      ],
      "name": "approve",
      "outputs": [
        {
          "internalType": "bool",
          "name": "",
          "type": "bool"
        }
      ],
      "stateMutability": "nonpayable",
      "type": "function"
    },
    {
      "inputs": [
        {
          "internalType": "address",
          "name": "account",
          "type": "address"
        }
      ],
      "name": "balanceOf",
      "outputs": [
        {
          "internalType": "uint256",
          "name": "",
          "type": "uint256"
        }
      ],
      "stateMutability": "view",
      "type": "function"
    },
    {
      "inputs": [],
      "name": "decimals",
      "outputs": [
        {
          "internalType": "uint8",
          "name": "",
          "type": "uint8"
        }
      ],
      "stateMutability": "view",
      "type": "function"
    },
    {
      "inputs": [
        {
          "internalType": "address",
          "name": "spender",
          "type": "address"
        },
        {
          "internalType": "uint256",
          "name": "subtractedValue",
          "type": "uint256"
        }
      ],
      "name": "decreaseAllowance",
      "outputs": [
        {
          "internalType": "bool",
          "name": "",
          "type": "bool"
        }
      ],
      "stateMutability": "nonpayable",
      "type": "function"
    },
    {
      "inputs": [
        {
          "internalType": "address",
          "name": "spender",
          "type": "address"
        },
        {
          "internalType": "uint256",
          "name": "addedValue",
          "type": "uint256"
        }
      ],
      "name": "increaseAllowance",
      "outputs": [
        {
          "internalType": "bool",
          "name": "",
          "type": "bool"
        }
      ],
      "stateMutability": "nonpayable",
      "type": "function"
    },
    {
      "inputs": [],
      "name": "name",
      "outputs": [
        {
          "internalType": "string",
          "name": "",
          "type": "string"
        }
      ],
      "stateMutability": "view",
      "type": "function"
    },
    {
      "inputs": [],
      "name": "symbol",
      "outputs": [
        {
          "internalType": "string",
          "name": "",
          "type": "string"
        }
      ],
      "stateMutability": "view",
      "type": "function"
    },
    {
      "inputs": [],
      "name": "totalSupply",
      "outputs": [
        {
          "internalType": "uint256",
          "name": "",
          "type": "uint256"
        }
      ],
      "stateMutability": "view",
      "type": "function"
    },
    {
      "inputs": [
        {
          "internalType": "address",
          "name": "recipient",
          "type": "address"
        },
        {
          "internalType": "uint256",
          "name": "amount",
          "type": "uint256"
        }
      ],
      "name": "transfer",
      "outputs": [
        {
          "internalType": "bool",
          "name": "",
          "type": "bool"
        }
      ],
      "stateMutability": "nonpayable",
      "type": "function"
    },
    {
      "inputs": [
        {
          "internalType": "address",
          "name": "sender",
          "type": "address"
        },
        {
          "internalType": "address",
          "name": "recipient",
          "type": "address"
        },
        {
          "internalType": "uint256",
          "name": "amount",
          "type": "uint256"
        }
      ],
      "name": "transferFrom",
      "outputs": [
        {
          "internalType": "bool",
          "name": "",
          "type": "bool"
        }
      ],
      "stateMutability": "nonpayable",
      "type": "function"
    }
  ],
  "bytecode": "0x60806040523480156200001157600080fd5b5060405162000c2e38038062000c2e8339810160408190526200003491620001ce565b81516200004990600390602085019062000075565b5080516200005f90600490602084019062000075565b50506005805460ff191660121790555062000288565b828054620000839062000235565b90600052602060002090601f016020900481019282620000a75760008555620000f2565b82601f10620000c257805160ff1916838001178555620000f2565b82800160010185558215620000f2579182015b82811115620000f2578251825591602001919060010190620000d5565b506200010092915062000104565b5090565b5b8082111562000100576000815560010162000105565b600082601f8301126200012c578081fd5b81516001600160401b038082111562000149576200014962000272565b604051601f8301601f19908116603f0116810190828211818310171562000174576200017462000272565b8160405283815260209250868385880101111562000190578485fd5b8491505b83821015620001b3578582018301518183018401529082019062000194565b83821115620001c457848385830101525b9695505050505050565b60008060408385031215620001e1578182fd5b82516001600160401b0380821115620001f8578384fd5b62000206868387016200011b565b935060208501519150808211156200021c578283fd5b506200022b858286016200011b565b9150509250929050565b600181811c908216806200024a57607f821691505b602082108114156200026c57634e487b7160e01b600052602260045260246000fd5b50919050565b634e487b7160e01b600052604160045260246000fd5b61099680620002986000396000f3fe608060405234801561001057600080fd5b50600436106100c95760003560e01c80633950935111610081578063a457c2d71161005b578063a457c2d71461018d578063a9059cbb146101a0578063dd62ed3e146101b357600080fd5b8063395093511461014957806370a082311461015c57806395d89b411461018557600080fd5b806318160ddd116100b257806318160ddd1461010f57806323b872dd14610121578063313ce5671461013457600080fd5b806306fdde03146100ce578063095ea7b3146100ec575b600080fd5b6100d66101ec565b6040516100e3919061081a565b60405180910390f35b6100ff6100fa3660046107f1565b61027e565b60405190151581526020016100e3565b6002545b6040519081526020016100e3565b6100ff61012f3660046107b6565b610294565b60055460405160ff90911681526020016100e3565b6100ff6101573660046107f1565b6102fd565b61011361016a36600461076a565b6001600160a01b031660009081526020819052604090205490565b6100d6610333565b6100ff61019b3660046107f1565b610342565b6100ff6101ae3660046107f1565b610391565b6101136101c1366004610784565b6001600160a01b03918216600090815260016020908152604080832093909416825291909152205490565b6060600380546101fb9061089c565b80601f01602080910402602001604051908101604052809291908181526020018280546102279061089c565b80156102745780601f1061024957610100808354040283529160200191610274565b820191906000526020600020905b81548152906001019060200180831161025757829003601f168201915b5050505050905090565b600061028b33848461039e565b50600192915050565b60006102a18484846104fc565b6102f384336102ee85604051806060016040528060288152602001610914602891396001600160a01b038a16600090815260016020908152604080832033845290915290205491906106b1565b61039e565b5060019392505050565b3360008181526001602090815260408083206001600160a01b0387168452909152812054909161028b9185906102ee90866106e8565b6060600480546101fb9061089c565b600061028b33846102ee8560405180606001604052806025815260200161093c602591393360009081526001602090815260408083206001600160a01b038d16845290915290205491906106b1565b600061028b3384846104fc565b6001600160a01b03831661041e5760405162461bcd60e51b8152602060048201526024808201527f45524332303a20617070726f76652066726f6d20746865207a65726f2061646460448201527f726573730000000000000000000000000000000000000000000000000000000060648201526084015b60405180910390fd5b6001600160a01b03821661049a5760405162461bcd60e51b815260206004820152602260248201527f45524332303a20617070726f766520746f20746865207a65726f20616464726560448201527f73730000000000000000000000000000000000000000000000000000000000006064820152608401610415565b6001600160a01b0383811660008181526001602090815260408083209487168084529482529182902085905590518481527f8c5be1e5ebec7d5bd14f71427d1e84f3dd0314c0f7b2291e5b200ac8c7c3b92591015b60405180910390a3505050565b6001600160a01b0383166105785760405162461bcd60e51b815260206004820152602560248201527f45524332303a207472616e736665722066726f6d20746865207a65726f20616460448201527f64726573730000000000000000000000000000000000000000000000000000006064820152608401610415565b6001600160a01b0382166105f45760405162461bcd60e51b815260206004820152602360248201527f45524332303a207472616e7366657220746f20746865207a65726f206164647260448201527f65737300000000000000000000000000000000000000000000000000000000006064820152608401610415565b610631816040518060600160405280602681526020016108ee602691396001600160a01b03861660009081526020819052604090205491906106b1565b6001600160a01b03808516600090815260208190526040808220939093559084168152205461066090826106e8565b6001600160a01b038381166000818152602081815260409182902094909455518481529092918616917fddf252ad1be2c89b69c2b068fc378daa952ba7f163c4a11628f55a4df523b3ef91016104ef565b600081848411156106d55760405162461bcd60e51b8152600401610415919061081a565b506106e08385610885565b949350505050565b6000806106f5838561086d565b9050838110156107475760405162461bcd60e51b815260206004820152601b60248201527f536166654d6174683a206164646974696f6e206f766572666c6f7700000000006044820152606401610415565b9392505050565b80356001600160a01b038116811461076557600080fd5b919050565b60006020828403121561077b578081fd5b6107478261074e565b60008060408385031215610796578081fd5b61079f8361074e565b91506107ad6020840161074e565b90509250929050565b6000806000606084860312156107ca578081fd5b6107d38461074e565b92506107e16020850161074e565b9150604084013590509250925092565b60008060408385031215610803578182fd5b61080c8361074e565b946020939093013593505050565b6000602080835283518082850152825b818110156108465785810183015185820160400152820161082a565b818111156108575783604083870101525b50601f01601f1916929092016040019392505050565b60008219821115610880576108806108d7565b500190565b600082821015610897576108976108d7565b500390565b600181811c908216806108b057607f821691505b602082108114156108d157634e487b7160e01b600052602260045260246000fd5b50919050565b634e487b7160e01b600052601160045260246000fdfe45524332303a207472616e7366657220616d6f756e7420657863656564732062616c616e636545524332303a207472616e7366657220616d6f756e74206578636565647320616c6c6f77616e636545524332303a2064656372656173656420616c6c6f77616e63652062656c6f77207a65726fa2646970667358221220642d7d15b8e53dc342ab953bf639bce41561c6c8e26558dfc89857efa895b4b364736f6c63430008040033",
  "linkReferences": {},
  "deployedLinkReferences": {}
}